:020000000C945E
:100002005C000C9400000C9400000C9400000C9412
:1000120000000C9400000C9400000C9400000C945E
:1000220000010C9400000C9400000C9400000C944D
:1000320000000C9400000C9400000C9400000C943E
:1000420000000C9400000C9400000C9400000C942E
:1000520000000C9400000C9400000C9400000C941E
:1000620000000C9400000C9400000C9400000C940E
:1000720000000C9400000C9400000C9400000C94FE
:1000820000000C9400000C9400001027E8036400A8
:100092000A00010000100001100001004C0048009D
:1000A2000000010004059E0001000505A0000200F9
:1000B2000800A2000000F894EE27ECBBF1E0F5BFC7
:1000C200E5BFE0936C00F8E1F1BDE1BD8DE0A2E097
:1000D200BB27ED938A95E9F780E090E1A0E0B1E0DB
:1000E200ED930197E9F7E4EAF0E0859195910097A5
:1000F20061F0A591B59105901590BF01F0010590B1
:100102000D920197E1F7FB01F0CF8BBFEFEFEDBF4F
:10011200E0E1EEBFC0E0D5E00C942801E0919B0045
:10012200E072E1F3E881E0939C000C94AD010E943F
:10013200AF01E093010508950E94AF01E093040529
:1001420003D1E093050500D1E093020508955E9B7B
:10015200FECF53985E9A0895539A0895549A08953B
:1001620054980895EA81FB810E94F4017E2EEA816F
:100172006E2EE881F9810E94F4015E2EE8814E2EF6
:10018200E52DE75DE40DE70DE60D0E94C101E1E01A
:10019200EA930E94A901E7E0EA930E94A901E3E041
:1001A200EA930E94A901EEE1EA930E94A9016A92F0
:1001B2000E94A9017A920E94A9014A920E94A90171
:1001C2005A920E94D101B3DFC7DF24960895E881D5
:1001D200E45D0E94C101E881EA93BAD0E4E0EA93C7
:1001E200B7D0E2E0EA93B4D0E4E2EA93B1D0E2E03D
:1001F200EA930E94D101A0DFAFDF229608950A920E
:100202001A92FA926A937A938A939A93AA93BA93D6
:10021200EA93FA93EFB7EA93E1E0F0E0FA93EA9314
:10022200D6DFE0910405EA9379DFE0910505EA93D0
:1002320075DFE991EFBFF991E991B991A99199918E
:10024200899179916991F990199009901895E0E056
:10025200E0930305EBBBEABBE8BBE7BBE5BBE4BB52
:10026200E2BBE1BBE3B9E2B9E0936200E093610073
:10027200E0936500E0936400E0BFE3BFE2BFE1BF4B
:10028200EFBDEEBDEDBDECBDE7BDE6BDEBBDEABD2C
:10029200E9BDE8BDE0937900E0937800E5BDE4BDF7
:1002A200E3BDE0938B00E0938A00E0938900E09342
:1002B2008800E0938100E0938000E0938700E09360
:1002C2008600E0938500E0938400E0938300E0934E
:1002D2008200E0936A00EABFE0ECE9BFE8BFE0E039
:1002E200E7BFE0937D00EBB9E8E1EAB9E6E0E0932D
:1002F2009500E0E0E0939000E5E0E9B9E0E0E0930A
:100302009B00E8E1E0939A00E6E0E0939D00E0E0E4
:10031200E0939800E5E0E0939900E0E8E8B9E0E0D6
:10032200E0BDE6B9EDB9E09374007894E4EFF1E052
:100332000E94DA01E0910405EA93F0DEE4EBF0E0DA
:100342000E94DA01F3CFFFCF5F9BFECFECB108959D
:100352005D9BFECFE881ECB9219608950E94A5012C
:10036200DE2E0E94A501CE2E0E94A501AE2E0E9475
:10037200A501E09300050E94A501BE2E0C94A501E3
:100382009E2EE92DE0958E2E0E94B1000E94AD00B6
:10039200EFEFEA930E94A901EFEFEA930C94A9010F
:1003A2000E94A9018A920E94A9010E94A8000C94AD
:1003B200AF00FA93EA93E8E7F0E0FA93EA930E9437
:1003C200B300E0E2F3E0FA93EA930C94E801E991D6
:1003D200F991309639F08DEC9AE00197F1F7A895F2
:1003E2003197C9F70895EF2FFF27E7FDFFEF089533
:00000001FF
