:100000000C9454000C9400000C9400000C9400001C
:100010000C9400000C9400000C9400000C94000060
:100020000C9490000C9400000C9400000C940000C0
:100030000C9400000C9400000C9400000C94000040
:100040000C9400000C9400000C9400000C94000030
:100050000C9400000C9400000C9400000C94000020
:100060000C9400000C9400000C9400000C94000010
:100070000C9400000C9400000C9400000C94000000
:100080000C9400000C9400000C9400001027E8036E
:1000900064000A00010000100001100001000000CF
:1000A00001000C009E000000F894EE27ECBBF1E08C
:1000B000F5BFE5BFE0936C00F8E1F1BDE1BD8DE077
:1000C000A2E0BB27ED938A95E9F780E090E1A0E0FC
:1000D000B1E0ED930197E9F7E0EAF0E085919591C1
:1000E000009761F0A591B59105901590BF01F001C1
:1000F00005900D920197E1F7FB01F0CF8BBFEFEF79
:10010000EDBFE0E1EEBFC0E0D5E00C94B200E091BD
:100110009B00E072E1F3E881E0939C000C94A7015E
:100120000A921A92FA926A937A938A939A93AA936A
:10013000BA93EA93FA93EFB7EA930E94A901E7D042
:100140004A92E5DF7A92E3DFE991EFBFF991E99115
:10015000B991A9919991899179916991F9901990A1
:1001600009901895E0E0EBBBEABBE8BBE7BBE5BB59
:10017000E4BBE2BBE1BBE3B9E2B9E0936200E09328
:100180006100E0936500E0936400E0BFE3BFE2BF7D
:10019000E1BFEFBDEEBDEDBDECBDE7BDE6BDEBBD26
:1001A000EABDE9BDE8BDE0937900E0937800E5BDE4
:1001B000E4BDE3BDE0938B00E0938A00E093890007
:1001C000E0938800E0938100E0938000E093870053
:1001D000E0938600E0938500E0938400E093830041
:1001E000E0938200E0936A00EABFE0ECE9BFE8BF79
:1001F000E0E0E7BFE0937D00EBB9E8E1EAB9E6E0D3
:10020000E0939500E0E0E0939000E5E0E9B9E0E0FC
:10021000E0939B00E8E1E0939A00E6E0E0939D0024
:10022000E0E0E0939800E5E0E0939900E0E8E8B9C9
:10023000E0E0E0BDE6B9EDB9E093740078940E9487
:10024000AE01E0ECF0E00E94B701F0FE07C0C89BF1
:1002500004C00E94A9010E94BF01F7CF0E94AE0115
:10026000EFE3F3E00E94B701F0FE07C0C89B04C0B3
:100270000E94A9010E94BF01F7CFE1CFFFCF0E94EA
:10028000CD01E093060508950E94CD014E2E57D072
:100290007E2E55D0E093070508955E9BFECF5398C0
:1002A0005E9A0895539A0895549A0895549808951B
:1002B000EA81FB810E940B028E2EEA81BE2EE8812C
:1002C000F9810E940B026E2EE8819E2EEC81E85D82
:1002D000E60DE90DE80DEB0D0E94E301EC81EA93D8
:1002E00032D0E7E0EA932FD0E3E0EA932CD0EEE1BE
:1002F000EA9329D0BA9227D08A9225D09A9223D015
:100300006A920E94F401BBDFCDDF26960895E88152
:10031000E45D0E94E301E881EA9315D0E4E0EA930A
:1003200012D0E2E0EA930FD0E4E2EA930CD0E2E0EC
:10033000EA930E94F401A8DFB5DF229608955F9B3F
:10034000FECFECB108955D9BFECFE881ECB921961C
:100350000895E1E0F0E0FA93EA930895E8ECF0E024
:10036000FA93EA930E94FF016894F0F8F2CFFA93AF
:10037000EA93EFEFF3E0FA93EA930C9458010E94AA
:100380008701E894F0F87A920E9487004A920E94CE
:100390008700E3E1EA930C9487000E949F01E093B9
:1003A00003050E949F01E09304050E949F01E093D2
:1003B00002050E949F01E09305050E949F01E093C2
:1003C00001050C949F01CE2EEC2DE095E0930005E5
:1003D0000E9456010E945201EFEFEA930E94A3018E
:1003E000EFEFEA930C94A3010E94A301E0910005B2
:1003F000EA930E94A3010E944D010C945401E991DB
:10040000F991309639F08DEC9AE00197F1F7A895C3
:100410003197C9F70895EF2FFF27E7FDFFEF089504
:00000001FF
